:0400000096EF08F07F
:1008000000413A494E47524553415220434C4156CC
:100810004500423A43414D4249415220434C4156E2
:100820004500434C4156452043414D4249414441D6
:1008300000434C41564520434F52524543544100DA
:10084000434F5252454354414D454E544500414457
:10085000454C414E54452021212100494E434F52E1
:10086000524543544100424C4F51554541444F007D
:090870005445434C41444F000083
:10087A000F0EC1129490959095928B908C908C92B9
:10088A00ACEC08F073EC07F0B5D1010E116E010E55
:10089A00B6EC07F0010E116E31EC08F0020E116E83
:1008AA00010EB6EC07F0120E116E31EC08F011ECE5
:1008BA0006F0046E0450D8A408D09CD1010E03D0CF
:1008CA00020E01D0000E016E0FD00450166E176A88
:1008DA001750000AD8A4F6D71650410AD8B4EED752
:1008EA00030AD8B4EDD7EED7A1EC08F083D1010EF4
:1008FA00116E020EB6EC07F0030E116E31EC08F021
:10090A0016D011EC06F0046E0450D8B410D003507F
:10091A000A0FD96EDA6A04C0DFFF020E116E0350A5
:10092A00020FB6EC07F02A0E78EC08F0032A030E41
:10093A000364E7D70D0E176E2D0E166ED80EE82E2D
:10094A00FED7162EFCD7172EFAD7A1EC08F0050E03
:10095A00106E69EC08F00A0E0F6E050E106EDCECD4
:10096A0007F00F501010D8A423D08B808C808C9263
:10097A00010E116E020EB6EC07F0310E116E31EC5B
:10098A0008F0020E116E020EB6EC07F04E0E116E52
:10099A0031EC08F07A0E176EC10E166E820EE82E32
:1009AA00FED7162EFCD7172EFAD7000E016E41D0AD
:1009BA00022A030E0218D8A41DD08C908C82010E34
:1009CA00116E060EB6EC07F0700E116E31EC08F0DF
:1009DA00020E116E050EB6EC07F0660E116E31ECC2
:1009EA0008F0270E106E100E0F6E1BEC08F0000EAA
:1009FA00026EDBD78C908C82010E116E060EB6EC5D
:100A0A0007F01C0E116E31EC08F0020E116E040E86
:100A1A00B6EC07F05B0E116E31EC08F07A0E176E29
:100A2A00C10E166E820EE82EFED7162EFCD7172E92
:100A3A00FAD7000E036E8B90DBD08C9255D7010E3D
:100A4A00116E020EB6EC07F0030E116E31EC08F0CF
:100A5A0016D011EC06F0046E0450D8B410D003502E
:100A6A000A0FD96EDA6A04C0DFFF020E116E035054
:100A7A00020FB6EC07F02A0E78EC08F0032A030EF0
:100A8A000364E7D70D0E176E2D0E166ED80EE82EDC
:100A9A00FED7162EFCD7172EFAD7A1EC08F0050EB2
:100AAA00106E69EC08F00A0E0F6E050E106EDCEC83
:100ABA0007F00F501010D8A458D0010E116E030E73
:100ACA00B6EC07F0140E116E31EC08F0000E036E4E
:100ADA0016D011EC06F0046E0450D8B410D00350AE
:100AEA000A0FD96EDA6A04C0DFFF020E116E0350D4
:100AFA00020FB6EC07F02A0E78EC08F0032A030E70
:100B0A000364E7D70D0E176E2D0E166ED80EE82E5B
:100B1A00FED7162EFCD7172EFAD7A1EC08F00A0E2C
:100B2A00116E59EC08F08C808C92010E116E020E37
:100B3A00B6EC07F0220E116E31EC08F0020E116EBF
:100B4A00020EB6EC07F0400E116E31EC08F07A0E88
:100B5A00176EC10E166E820EE82EFED7162EFCD721
:100B6A00172EFAD7000E016E41D0022A030E021880
:100B7A00D8A41DD08C908C82010E116E060EB6EC94
:100B8A0007F0700E116E31EC08F0020E116E050EB0
:100B9A00B6EC07F0660E116E31EC08F0270E106EF7
:100BAA00100E0F6E1BEC08F0000E026EDBD78C9055
:100BBA008C82010E116E060EB6EC07F01C0E116E39
:100BCA0031EC08F0020E116E040EB6EC07F05B0E63
:100BDA00116E31EC08F07A0E176EC10E166E820E87
:100BEA00E82EFED7162EFCD7172EFAD7000E036E64
:100BFA008C9023D70150166E176A1750000AD8A492
:100C0A00F9D71650000AD8B440D6010AD8B46FD61C
:100C1A00030AD8B414D7EED78A9E8A8C8A8A8A881D
:100C2A0081B613D0200E0F6E2A0EE82EFED70F2E95
:100C3A00FCD781A6FED74E0E0F6EEB0EE82EFED71E
:100C4A000F2EFCD70000310E120081B413D0200EF3
:100C5A000F6E2A0EE82EFED70F2EFCD781A4FED7E0
:100C6A004E0E0F6EEB0EE82EFED70F2EFCD70000AD
:100C7A00320E120081B213D0200E0F6E2A0EE82E09
:100C8A00FED70F2EFCD781A2FED74E0E0F6EEB0EAB
:100C9A00E82EFED70F2EFCD70000330E120081B0CB
:100CAA0013D0200E0F6E2A0EE82EFED70F2EFCD779
:100CBA0081A0FED74E0E0F6EEB0EE82EFED70F2E3A
:100CCA00FCD70000410E12008A8E8A9C8A8A8A8882
:100CDA0081B613D0200E0F6E2A0EE82EFED70F2EE5
:100CEA00FCD781A6FED74E0E0F6EEB0EE82EFED76E
:100CFA000F2EFCD70000340E120081B413D0200E40
:100D0A000F6E2A0EE82EFED70F2EFCD781A4FED72F
:100D1A004E0E0F6EEB0EE82EFED70F2EFCD70000FC
:100D2A00350E120081B213D0200E0F6E2A0EE82E55
:100D3A00FED70F2EFCD781A2FED74E0E0F6EEB0EFA
:100D4A00E82EFED70F2EFCD70000360E120081B017
:100D5A0013D0200E0F6E2A0EE82EFED70F2EFCD7C8
:100D6A0081A0FED74E0E0F6EEB0EE82EFED70F2E89
:100D7A00FCD70000420E12008A8E8A8C8A9A8A88D0
:100D8A0081B613D0200E0F6E2A0EE82EFED70F2E34
:100D9A00FCD781A6FED74E0E0F6EEB0EE82EFED7BD
:100DAA000F2EFCD70000370E120081B413D0200E8C
:100DBA000F6E2A0EE82EFED70F2EFCD781A4FED77F
:100DCA004E0E0F6EEB0EE82EFED70F2EFCD700004C
:100DDA00380E120081B213D0200E0F6E2A0EE82EA2
:100DEA00FED70F2EFCD781A2FED74E0E0F6EEB0E4A
:100DFA00E82EFED70F2EFCD70000390E120081B064
:100E0A0013D0200E0F6E2A0EE82EFED70F2EFCD717
:100E1A0081A0FED74E0E0F6EEB0EE82EFED70F2ED8
:100E2A00FCD70000430E12008A8E8A8C8A8A8A981E
:100E3A0081B613D0200E0F6E2A0EE82EFED70F2E83
:100E4A00FCD781A6FED74E0E0F6EEB0EE82EFED70C
:100E5A000F2EFCD700002A0E120081B413D0200EE8
:100E6A000F6E2A0EE82EFED70F2EFCD781A4FED7CE
:100E7A004E0E0F6EEB0EE82EFED70F2EFCD700009B
:100E8A00300E120081B213D0200E0F6E2A0EE82EF9
:100E9A00FED70F2EFCD781A2FED74E0E0F6EEB0E99
:100EAA00E82EFED70F2EFCD70000230E120081B0C9
:100EBA0013D0200E0F6E2A0EE82EFED70F2EFCD767
:100ECA0081A0FED74E0E0F6EEB0EE82EFED70F2E28
:100EDA00FCD70000440E1200000E1200959495965D
:100EEA009598959A959C959E8C948C968C988C9AAC
:100EFA008C9C8C9E020E126E380E116EAD0EE82E70
:100F0A00FED7112EFCD7122EFAD70000000E136E50
:100F1A00030E00EC08F04E0E116EEB0EE82EFED713
:100F2A00112EFCD70000132A020E1364F1D7330ED8
:100F3A0087EC08F0320E87EC08F0280E87EC08F0F0
:100F4A000C0E87EC08F0060E87EC08F0010E87EC11
:100F5A0008F02F0E116EC00EE82EFED7112EFCD708
:100F6A001200146E09D0000E05D0400E03D0140EE4
:100F7A0001D0540E156E14D01150126E136A13500C
:100F8A00000AD8A40DD01250010AD8B4ECD7030A2B
:100F9A00D8B4EBD7010AD8B4EAD7070AD8B4E9D744
:100FAA00140415261550800987EC08F0120002D0A7
:100FBA000F2A102A1050D96EDA6A0F50E16EE26ACF
:100FCA00DE50E618D8A406D00F50D96EDA6ADF5080
:100FDA00D8A4EED70F50D96EDA6ADF50116E1050CE
:100FEA00D96EDA6ADF50126E1250115C0F6E106AF7
:100FFA00D8A0100612000F6E0FA002D08C8801D064
:10100A008C980FA202D08C8A01D08C9A0FA402D09D
:10101A008C8C01D08C9C0FA602D08C8E01D08C9E19
:10102A008C86C80EE82EFED78C961200000E136E20
:10103A00000E126E0AD0100E116E940EE82EFED714
:10104A00112EFCD700D0124A132A0F50125C1050EE
:10105A001358D8B01200EFD709D011C0F6FF080E06
:10106A00F76E0800F55078EC08F0112A11C0F6FF67
:10107A00080EF76E0800F5500009D8B41200EDD733
:10108A00106E10C0A9FF0FC0A8FFA69EA69CA6843A
:10109A00F29E550EA76EAA0EA76EA682F28EA1A880
:1010AA00FED7A198A6941200000E126E11501224B7
:1010BA00D96EDA6ADF500F6E125045EC08F0122A28
:1010CA00030E1264F3D71200000E116E1050112491
:1010DA00D96EDA6A1150B5EC08F0DF6E112A030EE8
:1010EA001164F4D71200106E8C8410380F0B00ECC8
:1010FA0008F010500F0B00EC08F0F00E00D0E82EAC
:10110A00FDD71200106E8C9410380F0B00EC08F00B
:10111A0010500F0B00EC08F0F00E00D0E82EFDD7AF
:10112A00120000EE01F00E0EEE6AE806FDE1000E76
:10113A00F86E00013DEF04F0010E87EC08F0200E76
:10114A00116E2A0EE82EFED7112EFCD71200939E9E
:10115A00939C939A93989386938493829380120094
:10116A000F6E0FC0A9FFA69EA69CA680A8501200CB
:020000040020DA
:08000000FFFFFFFFFFFFFFFF00
:020000040030CA
:0E000000210E191EFF8181FF0FC00FE00F407F
:0200000400F00A
:0800000031323334FFFFFFFF32
:00000001FF
